:100000000C946E260C948F260C948F260C948F26BD
:100010000C948F260C948F260C948F260C948F268C
:100020000C948F260C948F260C948F260C948F267C
:100030000C948F260C948F260C948F260C948F266C
:100040000C948F260C948F260C948F260C948F265C
:100050000C948F260C948F260C948F260C9491264A
:100060000C948F260C94338C0C948F260C948F2632
:100070000C948F260C948F260C948F260C948F262C
:100080000C948F260C948F260C948F260C948F261C
:100090000C945D8C0C948F260C948F260C948F26D8
:1000A0000C948F260C948F260C948F260C948F26FC
:1000B0000C948F260C948F260C948F260C948F26EC
:1000C0000C948F260C948F260C948F260C94878C7E
:1000D0000C948F260C948F260C94B18C0C948F2644
:1000E0000C948F26192B402B732B9A2BC12BE82BAA
:1000F0000F2C362C5D2C49436D46724677467C4664
:10010000814686468B46904696469C46A346AA461E
:10011000B146B8465448E046D546F246E846F7466A
:10012000CE47E847F047F747FE4705480C481448D4
:100130001B48224829485948614868486F48764812
:100140007D4887488F4897489F48A748B948C24884
:10015000CB48D44823492D4935493D494549DC4ED2
:10016000E04EE44E054F574F2D4E314E354E564E14
:10017000B94E4D49574961497049D7494953FD49DD
:10018000074A114A204A354A454A49537A507E5017
:100190008250A450745198519C51A051C0515E524C
:1001A000794F7D4F814F9E4FDC4FF64FFA4FFE4FF8
:1001B0001C505C50864390439A43AA430D44D0435D
:1001C000FA43D843EB4322442C44364440444D4444
:1001D0005A446944BF448444B04490449F44D24448
:1001E000DF44EC44495349461646B845C845E04506
:1001F000F245554B664B774B864B954BA74B394C8D
:10020000484CED4AFD4A0D4B1F4B314B434B754A51
:10021000894A9D4AB14AC54AD94A154C274C5B4A7E
:1002200049538352AA525B4C674C8F4C574CB74C86
:10023000A94C9B4CBB4C694DF04D044E214E0753CD
:10024000CA4D984DBF4C1C4DE74930465C46E945C8
:10025000C04549438649B94BC84BD74BE64BF54B94
:10026000054CBF46CA46304838483F4846484D4886
:10027000FC46DD48F74802490D4918492A4F824E8D
:10028000CD50E551BA4F3A50F94406451345204543
:100290006F45484565454F4559457C459045A445C2
:1002A000774C09461046F845D2450E5367586958B1
:1002B00075586B586D586F587158735880588258DC
:1002C0008458865888588A588C588E589058925816
:1002D0009458965898589A589C589E58885C885CB0
:1002E0009F5CB35C885C915C9F5CB35C5067BB694E
:1002F000AB67BB690468BB697268BB691269BB699B
:100300000D67BB691667BB692767BB693F67BB6938
:100310002569BB69456907634236B79BD8A71A3977
:10032000685618AEBAAB558C1D3CB7CC5763BD6D43
:10033000EDFD753EF6177231BF000000803F0800EA
:100340000000BE922449123EABAAAA2ABECDCCCC54
:100350004C3E00000080BEABAAAAAA3E00000000EE
:10036000BF000000803F0000000000084178D3BBC0
:100370004387D1133D190E3CC3BD4282AD2B3E686D
:10038000EC8276BED98FE1A93E4C80EFFFBE01C45E
:10039000FF7F3F00000000000C942A4F0C94574947
:1003A0000C94D4480C949C460C94AD930C94B69346
:1003B0000C94B9480C9402490C949D4A0C94CD3687
:1003C0000C94977C0C949E4F0C945B4C0C949A4329
:1003D0000C94B94E0C943C7F0C9435490C948C5879
:1003E0000C94B1460C9416670C945D580C942248FA
:1003F0000C9488580C9459480C9461490C94214EE3
:100400000C94AA460C94454A0C943D490C94E04641
:100410000C94A4450C94D0430C9476480C94A748B3
:100420000C94694D0C9467580C94AA430C94D749CA
:100430000C9416460C94B74C0C9461480C947C6A4E
:100440000C9414480C94B8460C94C12B0C945D2C5D
:100450000C94B35C0C94AB670C943F670C94915C68
:100460000C94FA430C947B810C9490460C946F4549
:100470000C9445690C94F8450C9409460C94E94594
:100480000C94274C0C941C4D0C9440440C94F7464F
:100490000C9418490C940D670C94794F0C94E366F6
:1004A0000C9448450C94204A0C948F480C94574C5B
:1004B0000C944D480C94114A0C94984D0C94314B6B
:1004C0000C94B3810C94C0510C94D2440C94DC4E27
:1004D0000C947D4F0C9465450C94BB4C0C94FC46DD
:1004E0000C94E04E0C9429480C94A94C0C944C6A42
:1004F0000C940D440C94FE470C94FD4A0C94178107
:100500000C941F4B0C94394C0C94E8460C944943C2
:100510000C9498510C9427360C94774B0C944648C5
:100520000C9413450C9423490C9430460C94D94AEE
:100530000C94E0450C94362C0C94F0470C949A2BB8
:100540000C9440820C94CD500C94BF4C0C94E82B2E
:100550000C9473580C94DD480C94FE4F0C94224478
:100560000C9486460C945A440C94BB690C949E5887
:100570000C94554B0C947A500C943F480C941046B4
:100580000C9476580C94FA4F0C9425690C94BF4641
:100590000C94F04D0C946B580C9482580C94BF44FE
:1005A0000C94CA460C9483520C94CA4D0C94814FFF
:1005B0000C9480580C9497480C941B480C94E74971
:1005C0000C94402B0C948F4C0C94D5460C94C54A3B
:1005D0000C946E7E0C942C440C94054C0C947C452D
:1005E0000C94664B0C94CE470C949C510C948B4607
:1005F0000C94B14A0C948E580C949A580C94F74869
:100600000C949B4C0C9496580C9486430C94745107
:100610000C9487480C94314E0C946D460C94E64B28
:100620000C94CB480C94574F0C9486580C94EE6362
:100630000C9430480C947E500C94B94B0C940E538F
:100640000C94354E0C94D2450C94F54B0C94732BB2
:100650000C94894A0C9472680C9433360C94864935
:100660000C94EB430C9477460C945B4A0C94DC4F4F
:100670000C94044E0C94F2460C946F480C9459451B
:100680000C940D4B0C947D480C9412690C94F2451B
:100690000C949F5C0C942D490C9494580C940D4927
:1006A0000C94564E0C9496460C9436440C94C845C3
:1006B0000C949F440C940F2C0C940C480C94844480
:1006C0000C94ED4A0C94F64F0C941C500C94B044CE
:1006D0000C9469440C94885C0C9449460C947C46B8
:1006E0000C94954B0C945E520C94B8450C94D843E2
:1006F0000C9406450C94F7470C94C0450C944D445B
:100700000C94F5570C946F580C9404680C94A980C1
:100710000C9492580C94DF440C94A3460C945067AC
:100720000C94ED7F0C9475580C944D490C94864BA9
:100730000C94054F0C94FD490C94E44E0C947049B4
:100740000C94A0510C9438480C94674C0C94824E35
:100750000C94AA520C9407530C94074A0C94754AB3
:100760000C9490440C9420450C94484C0C94D74B1A
:100770000C94E5510C94BA4F0C94774C0C94713650
:100780000C9471580C9427670C94C84B0C94192B3B
:100790000C949C580C9469580C945C500C949045A3
:1007A0000C946D580C9454480C946A7F0C949F4898
:1007B0000C94C2480C945C460C944F450C94154C18
:1007C0000C94238F0C94434B0C9490430C948A58B4
:1007D0000C9405480C942D4E0C9498580C943A5057
:1007E0000C9481460C94354A0C94A74B0C94F94414
:1007F0000C9484580C943F820C9449530C941881A7
:100800000C94E8470C94EC440C94A4500C94684865
:100810000C9472460C9482500C94917E0C949058D7
:100820000C9445490000000000000000000000009A
:1008300000000000000000000000000000000000B8
:1008400000000000000000000000000000000000A8
:100850000000000000000000000000000000000098
:100860000000000000000000000000000000000088
:100870000000000000000000000000000000000078
:100880000000000000000000000000000000000068
:100890000000000000000000000000000000000058
:1008A0000000000000000000000000000000000048
:1008B0000000000000000000000000000000000038
:1008C0000000000000000000000000000000000028
:1008D0000000000000000000000000000000000018
:1008E0000000000000000000000000000000000008
:1008F00000000000000000000000000000000000F8
:10090000D70001070F001E002F0033009C00A2003B
:10091000BF0000010001776B656D707479617070C4
:10092000000101040000000119FF000000010100A6
:100930000000040201000203080018005D0000002E
:100940000000010200000500219D016C9B000100D8
:100950000100010502003A00590104A00121469D51
:1009600001AF1500019C0178019E02127B9C017D64
:10097000009C0116009C0111019E020B9E00029E2C
:10098000020C9E020D3122840008229C0200009479
:10099000FFF300000000000001020001009B0003C3
:1009A000000000000006020007000F0006004F4292
:1009B0004A4543540C004D79206E6F64652069648C
:1009C0003A20050205000A006261736500776B70CA
:1009D000665F7669727475616C0002000200000245
:1009E00000030000020004000000000000000000FE
:1009F00000000000000000000000000000000000F7
:100A000000000000000000000000000000000000E6
:100A100000000000000000000000000000000000D6
:100A200000000000000000000000000000000000C6
:10190000D03000070F001800D5048105672C6D2C1E
:10191000CE30000100FF6261736500012B58006941
:10192000009A00BB00D800E900FE000F012C01491D
:10193000016601730184019101A201B301C001D1CB
:1019400001DE01EF01180221023E0247025802693E
:101950000282028F029802B102C202DF02EC028D03
:10196000031204270430044F046C0479048A04A38E
:1019700004B0040200000EFF00000002000000009E
:101980000001000100000019FF0001000A00000032
:10199000020002000300030004000400050005002B
:1019A00006000600070007000800080009000900FB
:1019B0000A000A000B00000019FF000200060000E8
:1019C000000C0002000D000B000E000C000F000DBB
:1019D0000010000E001101000002FF0003000500CE
:1019E0000F0012000E00130010001400110015006B
:1019F0001200160200001DFF000400020000001784
:101A00000001001802000012FF00050003000000A2
:101A1000190013001A0001001B0200001DFF000640
:101A200000020000001C0001001D0001001923003D
:101A30000700050014001E0015001F0016002000FE
:101A40001700210018002200010019FF00080005FE
:101A5000001C0026001D0027001600280017002982
:101A60000018002B00010019FF00090005001F00ED
:101A70002C0020002D0017002E0018002F0016004B
:101A80003000000019FF000A0001000000370200CA
:101A9000001DFF000B0002000000380001003900AB
:101AA000000019FF000C00010000003A02000025B0
:101AB000FF000D00020000003B0001003C0200009E
:101AC00025FF000E00020000003D0001003E000066
:101AD0000019FF000F00010000003F0200001DFF81
:101AE0000010000200000040000100410200001050
:101AF000FF00110001000000420200001DFF001263
:101B000000020000004300010044000400195700D7
:101B10001300080013004F001D0050003100510059
:101B200032005200330053001600540017005500D5
:101B300018005600000019FF0014000000080019EA
:101B4000FF001500050039005C0033005D00160041
:101B50005E0017005F0018006000000019FF00160B
:101B600000000200001DFF001700020000006800D6
:101B700001006902000010FF001800020000006A66
:101B80000001006B0000FF00FF00190004000000CE
:101B90006C0016006D0018006E0017006F02000048
:101BA00026FF001A00010000007000000019FF006D
:101BB0001B00000000001977001C000400420073A5
:101BC0000043007400440075004500760200000EDA
:101BD000FF001D00020000007800010079000200F3
:101BE00019FF001E00050048007C0031007D001632
:101BF000007E0017007F001800800200000DFF002B
:101C00001F00010000008101080019FF00200026CC
:101C1000000000820001008300490084004A008522
:101C2000004B0086004C0087004D0088004E008964
:101C3000004F008A0050008B0051008C0052008D34
:101C40000053008E0054008F005500900018009142
:101C500000560092005700930058009400590095D8
:101C6000005A0096005B009700170098005C0099EE
:101C7000005D009A005E009B005F009C0060009D7C
:101C80000061009E0062009F006300A0006400A14C
:101C9000006500A2006600A3006700A4006800A51C
:101CA000001600A6006900A701050019FF00210029
:101CB0001F000000AF001300B0000100B100510090
:101CC000B2007100B3007300B5007500B700520098
:101CD000B8005300B9007600BA007700BB00780066
:101CE000BC007900BD007A00BE007B00BF007C0014
:101CF000C0007D00C1007E00C2007F00C3008000E4
:101D0000C4008100C5008200C6008300C7008400B3
:101D1000C8008500C9008600CA008700CB00880083
:101D2000CC001600CD008900CE008A00CF02000052
:101D300012FF00220003000000D0000100D10013B8
:101D400000D200000019D70023000000020019FF94
:101D5000002401001B05000000DE009200DF00935C
:101D600000E0004000E1009800E602000019FF00DA
:101D7000250005000000E8000100E9009A00EA00E3
:101D80009B00EB009C00EC0200000DFF0026000110
:101D9000000000ED0200001DFF002700020000000F
:101DA000EE001600EF01000019FF0028000400A259
:101DB00000F500A400F700A600F900A900FC02004D
:101DC000001DFF00290001000000FD0200000DFFC2
:101DD000002A0001000000FE04AA0001000001002A
:101DE00000010001030103000101010100010100E4
:101DF00000000100010201000101000101010101D7
:101E000002020101010201020102010000000002C0
:101E100001020101010102020202000001000000B2
:101E20000102010103040203010103000104010096
:101E30000101050201010102010201020102010288
:101E40000000000001010301010101000001010186
:101E50000201010103010101010201020202020269
:101E60000202000000000500010102000100010063
:101E70000000000001020001000101010001000258
:101E80000101010002FF00021002210231023D02A5
:101E90004A02560263026F028B029602AC02D6021D
:101EA000E602F20208032C033803430358037403C9
:101EB0008A03AE03C803D803E903F90309041A042B
:101EC0002A043B04500460047C049804C104E30425
:101ED000F5041E05330543055005610575059E058E
:101EE000B305C305D405FD050A0643067C0699061D
:101EF000BF06E5062F073F074F07600770078007FB
:101F00009107A107B207C207D207E307F307030847
:101F100014088D089E08AF08C00807091909630A4C
:101F2000750A8D0AA60ABB0ACD0ADE0AEE0AFF0A66
:101F3000120B220B4B0B300CB70CC90C220E340EBB
:101F4000490E590E6C0E860EB00EC00ED60EEE0E59
:101F5000040F1D0F330F4C0F5C0F6D0F7D0F8E0F95
:101F60009A0FA50FBB0FC60FD60FE50FF50F001088
:101F70000B10161021103710471058106A109410CB
:101F8000A910B910CD10DE10071117112E11611113
:101F90009111E711F7110D1249125E12A812C71222
:101FA000D712031350135D139213ED131D14BB14BA
:101FB0006715C715DA15F515311644169A16B216B7
:101FC00001171417D317E917471891181F199619F5
:101FD0000D1A701A7D1A9E1AB91ACD1AE31AFC1A34
:101FE0001A1B2C1B3E1B501B6D1B8C1B9C1BAE1B02
:101FF000DA1B131C5B1CF71C391DA31DF41D241ECA
:10200000851EDB1E301F451F941FA91FBE1F4320C6
:10201000AB20DC2075210022162283229922AF22D8
:1020200019232D233E234E235E236F237F238F23EB
:102030009A23A523B823CF23DA23E523F023FB2318
:1020400006241B243B24672490249C24A724B22428
:10205000C824D824F6240125112526253B255525FD
:102060006525752585259425A925B425BF25E92550
:10207000F4250E2619262C2637266926A726B226F1
:10208000C626D62600000000010200000500219DA2
:10209000003D9B0001000000020300000600212219
:1020A0009D003E9B00000000000102000005002191
:1020B0009D006C9B00000000000101000001009BDE
:1020C00000000000000103000A020009990000025C
:1020D00000000201000001009B000000000001025E
:1020E000000402000298000000000001010000014D
:1020F000009B00000200000203000011001C83008E
:102100000F219C0008003F7900FF94FFF39B000023
:1021100000FF000100000A000000010000000207AB
:10212000000A0B0021220922A37B9C000A019900CE
:10213000010400020406000A1F00092A041B041EF1
:102140008F0016221C1B046B219C0008007D7A392D
:1021500079040194FFEA1B049900000000000102C9
:1021600000000500219D006C9B00000000000101A3
:10217000000001009B0001000000020700000B00AE
:1021800021220922A37B9C000C019B00010400007A
:102190000405000019001E1C6B2D1C1E8F0012214F
:1021A000221C347B9C000E0079000194FFEF9B0001
:1021B000000000000101000001009B000002FFFE82
:1021C0000200000000000001000000020300000AFD
:1021D00000219D000C21225400009B000002000001
:1021E000020400001100214F000084000C214F0068
:1021F000001C9C000E009B00010000000203000078
:102200000B0021229C0055009C000B019B0001004B
:10221000000002040000190021229C0055009C00CF
:102220000B0121110D9C000E0021110A9C000E00D3
:102230009B0000000000010400000F0021110D9C14
:10224000000E0021110A9C000E009B0000000000FF
:10225000010200000500219D00789B0001000000A4
:1022600002030000060021229D00799B000000006F
:1022700000010200000500219D00439B00000200B8
:1022800000020200000500219D00439B00010000A8
:102290000002030000060021229D00449B00000074
:1022A0000000010200000500219D00789B00010054
:1022B000000002030000060021229D00799B00001F
:1022C000010000020300000A00219D006C2117504C
:1022D00000009B0000000000010200040500214BEB
:1022E0000000980000000000010200FF1100214BD7
:1022F0000000B0000915002B94000615002C9A0070
:10230000000000000103000A1100214B0000B00092
:10231000091304CF9400061304D5990001000000AE
:10232000020300041E0022A60007B00018214B0083
:102330000022A500079C00150087000703940004F5
:10234000029802980000000000000402001700A09C
:10235000000746039D001E5E0000A0000746029D88
:10236000001E5E00019B000100000001040208073E
:102370000021110A9E0025980001020002020502B8
:10238000081E00211C9E004B2D1E11808E00091E70
:10239000117F91000BA00018469D006AA41E7D7A53
:1023A000980000010000020300000A00219D006C5B
:1023B00021175000009B00000000000102000805EA
:1023C00000214B0000980000000000010200FF0205
:1023D000000F9A00000000000103000A0600214BD4
:1023E00000007B990000010000010402FF0900A029
:1023F000000846179D00269A000100000002030015
:10240000041E0022A60008B00018214B000022A5DF
:1024100000089C001D008700070394000402980236
:10242000980000010000020300000A00219D006CDA
:1024300021175100009B000000000001020005056B
:1024400000214C00009800000000000103000A0673
:1024500000214C00007B99000100000002030004F1
:102460001E0022A60009B00018214C000022A50081
:10247000099C00200087000703940004029802983A
:102480000000000000010200FF02000F9A0000019E
:102490000000010302042E001710618800091710C4
:1024A0007A8B001F171200DF88000A171200F68BC4
:1024B0000011171200F888000E171200FF8A00079B
:1024C0000394000402980000010000010302042E9E
:1024D0000017104188000917105A8B001F171200AF
:1024E000C088000A171200D68B0011171200D88876
:1024F000000E171200DE8A00070394000402980001
:102500000001000001030204120017103088000DC2
:102510001710398A00070394000402980000010094
:1025200000010302051B00179E0032B000151710B2
:102530005A8A00091710205FAD981710205FAD98D8
:1025400017980000010000010302051B00179E0000
:1025500031B0001517107A8A000917102060AD9865
:1025600017102060AD9817980000030002020502C2
:102570000A3F00082E1D0B8E00301D112490002AEA
:10258000179E0033B0000C171030607B2E94001A99
:10259000179E0032B1000A179E0031B0000C1710D0
:1025A0001F687B11096B2E1F1D8F00071F940004ED
:1025B00008990000000000010200000500219D00B4
:1025C0006C9B0000000000010200000500219D003E
:1025D000789B000100000002030000060021229DFC
:1025E00000799B0000000000010200000500219D11
:1025F000006C9B0000000000010200000500219D0E
:1026000000E89B00010000000203000006002122F8
:102610009D00E99B00000000000102000005002170
:102620009D00E89B0001000000020300000600215D
:10263000229D00E99B00000000000102000005004F
:10264000219D006C9B0000000000010200000500BD
:10265000219D00789B00010000000203000006009D
:1026600021229D00799B000000000001020000056E
:1026700000219D00409B00000000000102000005B9
:1026800000219D00789B000100000002030000066D
:102690000021229D00799B0000040103020A02FF31
:1026A0006E001E0B8E00091E1124910006110A2DCA
:1026B0001021A105301C81000703940004022504A9
:1026C00011202A051604B100061C702B1C1E7090E8
:1026D0000019211B057905FF5900021C1E6F70357A
:1026E0003A1C1E6E2B94FFE7211B055900021C703B
:1026F000353A1604B0000C217905FF1B05102D3A60
:10270000A0002046211B0511211B056C9D00859A08
:102710000000020000010502FF06001C0D9E00499A
:102720009A0000020000010502FF06001C0C9E003A
:10273000499A0000020000010502FF06001C0A9EE3
:1027400000499A0000040104020A02FF3C00102024
:10275000A1053011202A040A1E712A061B060A6CE4
:102760002A06217904FF1B045900021C1B0674353C
:102770003A1C1E7D732B1C7FFFEBA0002046211B03
:102780000411201B046C9D00859A000002000001CA
:102790000502FF07001C110A9E00459A0001020075
:1027A0000D0207020A3F012185000EA00018461500
:1027B000002D9D006BA41C0B8F0029A0001846A0C3
:1027C0000021469D00AF15002E9C0078011C9C0046
:1027D0007D0015002F9C0078019C0016009D006B69
:1027E000A41C1124910029A0001846A00021469D98
:1027F00000AF15002E9C0078011C9C007D00150088
:10280000309C0078019C0016009D006BA4092D02ED
:102810002504092A05219C0051002A071B07830073
:10282000A621099C005200102D87001303250414D3
:10283000800000002A0979050194000A1480000034
:10284000012A091B091C6E2A0B1B051B078F00257B
:10285000211B057905019C0052001C9E00362A0DA3
:102860001B0D81000CA0001846219D006BA41B0DC0
:10287000702D1B051B078F0057211B057905019C37
:102880000052001C9E00362A0D1B0D81000CA0007A
:102890001846219D006BA41E1B0B8F000CA0001876
:1028A00046219D006BA41E1C6D2D1E1B091B0D6B6C
:1028B0008F000CA0001846219D006BA41E1B0D6C00
:1028C0002D94FFB1A0001846219D006BA41604B002
:1028D00000141B050A9100051E99A0001846219DB1
:1028E000006BA41E709900010000000104020A0799
:1028F0000021110A9E004B9900010200000206020D
:10290000FF0D00A0001346211C9E004B9D004F9A16
:102910000001000000010602FF0E00A00013462186
:10292000110A9E004B9D004F9A0000020000020415
:1029300000000A00219D006C211C5300009B000038
:10294000000000010300080700214E00007D7A9876
:102950000000000000010300090600214E00007D78
:102960009800000000000103000A0500214E00004D
:102970009900000000000105000B0600214E000038
:10298000D8D50000000000010300FF0800214E0020
:10299000009E00AD9A00000000000103000A05003F
:1029A000214E0000990001000000020500041E00F5
:1029B00022A60013B00018214E000022A500139C8F
:1029C0000032008D00070394000402980298000072
:1029D00000000000060200DA001024A105460910DC
:1029E000303A460A10313A460B10323A460C103350
:1029F0003A460D10343A460E10353A461106103656
:102A00003A46110710373A46110810383A4611096C
:102A100010393A46110A10613A46110B10623A46D3
:102A2000110C10633A46110D10643A46110E1065F0
:102A30003A46110F10663A46111010673A461111C6
:102A400010683A46111210693A461113106A3A4654
:102A50001114106B3A461115106C3A461116106D90
:102A60003A461117106E3A461118106F3A4611196E
:102A700010703A46111A10713A46111B10723A46FC
:102A8000111C10733A46111D10743A46111E107530
:102A90003A46111F10763A46112010773A46112116
:102AA00010783A46112210793A461123107A3A5E8C
:102AB00000029B0000060103020D02FF7C001B04C4
:102AC0000B8E000A1B041124910007110A2A04101E
:102AD00041A1053011402A06B9B6DAB300070394C4
:102AE00000040225081608B10006B9CEBFB91B04C0
:102AF00070D8DAB4001E211B067906FF590002B90E
:102B00001B04D8CDCED6353AB91B04D8CCBF94FF20
:102B1000DF211B06590002B9CED6353A1608B0009F
:102B20000C217906FF1B06102D3AA0002046211B20
:102B30000611411B066C9D00859A000004000001EF
:102B40000702FF0700B9110A9E00589A000102000F
:102B500013020D020B4E012185000EA00018461530
:102B6000002D9D006BA41C0B8F0029A0001846A00F
:102B70000021469D00AF15002E9C0078011C9C0092
:102B80007D0015002F9C0078019C0016009D006BB5
:102B9000A41C1124910029A0001846A00021469DE4
:102BA00000AF15002E9C0078011C9C007D001500D4
:102BB000309C0078019C0016009D006BA4B6C102F9
:102BC0002506092A07219C0051002A091B098300B8
:102BD000B521099C005200102D870017032506BD62
:102BE0008000000000000000BE0B79070194000E79
:102BF000BD8000000000000001BE0BB80B1CD8CC4B
:102C0000BE0F1B071B098F0026211B077907019C9C
:102C10000052001C9E00362A131B1381000CA000DA
:102C20001846219D006BA41B1370D8C11B071B09FC
:102C30008F005C211B077907019C0052001C9E003D
:102C4000362A131B1381000CA0001846219D006B2F
:102C5000A4BBB80FDAB3000CA0001846219D006B8E
:102C6000A4BB1CD8CBC1BBB80B1B13D8C9DAB300AB
:102C70000CA0001846219D006BA4BB1B13D8CAC131
:102C800094FFACA0001846219D006BA41606B0006E
:102C9000141B070A910005BBD5A0001846219D0012
:102CA0006BA4BBCED500010000000105020B07009C
:102CB00021110A9E005AD5000004000002060000FF
:102CC0000A00219D006C21B9C600009B0000000095
:102CD000000105000B050021C50000D50000000023
:102CE00000010500FF080021C500009E00AE9A000B
:102CF00000000000010D000A0F0021C5000021C5E1
:102D000000001120D8D0D4D699000100000002099B
:102D100000041F0022A60015B0001921C5000022E2
:102D2000A500159C003300DAB100070394000402EB
:102D30009802980000000000010200000500219D9B
:102D4000006C9B00000200000103020A0B001C81C2
:102D500000081C709400041C990000040000010984
:102D6000020B0D00B9B6DAB30008B9CE940004B96D
:102D7000D500000400000205020A0B001C1E8E0094
:102D8000071C9400041E9900000800000209020BB1
:102D90000E00B9B804DAB20007B9940005B804D53A
:102DA00000000400000205020A0B001C1E90000730
:102DB0001C9400041E9900000800000209020B0E7A
:102DC00000B9B804DAB40007B9940005B804D50016
:102DD00000000000010200000500219D00789B001A
:102DE0000100000002030000060021229D00799BE3
:102DF0000000000000010200000500219D00409B32
:102E0000000100000002030000060021229D004195
:102E10009B00000000000101000001009B00000079
:102E2000FF00010001FF000000010000000203009C
:102E3000040B002122930007039400040298000071
:102E400000FF000100010A00000000000000010274
:102E500000000500219D00ED9B0000000000000225
:102E600002FF04005900039A000000000001020064
:102E7000000500219D006C9B000002FFFE02000186
:102E8000000000000000FF000100010A0000000037
:102E900000FF000100010A0000000000FF00010027
:102EA000010000000000000000000302000B00A071
:102EB000001C469D00725E00039B000000000001A4
:102EC0000200000500219D003D9B00010000000262
:102ED000030000060021229D003E9B00010000002F
:102EE00001040209070021110A9E007B98000102DB
:102EF0000002020502091F00211C9E004B2D1E131B
:102F000080008E000A1E137FFF91000BA000184660
:102F10009D006AA41E7D98000001000002030000CD
:102F20000A00219D006C21175200009B0000000048
:102F300000010200090500214D000098000000007A
:102F400000010300FF0900214D00007B9E00AD9AA7
:102F500000000000000103000A0600214D00007B74
:102F6000990001000000020300041E0022A6001EBA
:102F7000B00018214D000022A5001E9C00310087E2
:102F8000000703940004029802980000000000016A
:102F90000200000500219D003B9B00000000000195
:102FA0000300000C00219D006C2102A105540000CB
:102FB0009B0001000000020900002800219D006C18
:102FC00021229C00510053000421214E00047DA1C8
:102FD000055400002209214E0004214F0000099CE5
:102FE0000053019B000100000002090000250021A0
:102FF0009D006C2122A37B53000421214E00047DFF
:10300000A1055400002209214F000009214E0004AF
:103010009E00D59B0001040000040900004B002124
:103020009D006C1C81000CA00022461C9D00D2A4B7
:103030001E81000CA00022461E9D00D2A41C22A3CB
:103040007B1E6C91000EA00022461C1E6B9D00D2C0
:10305000A4211E7DA105540000211E530004221C42
:10306000214F0000091E9E00D59B000204000005B0
:103070000200000500219D006C9B0002000000037F
:103080000800000B0021220922A37B239D00869BC0
:103090000001040002040900003100219D006C21A0
:1030A0001E530004211E7DA105540000092A041BA3
:1030B000041E0A6C900017214F00001B04221B0401
:1030C0001C6B34AD3A79040194FFE79B00010000CA
:1030D00000020700000A0021220922A37B9D00882C
:1030E0009B0001000200020400002F00219D006CE3
:1030F000224632A7229C00890021229C008A00548B
:103100000000210953000021229C005100530004BB
:1031100023A89400083323A824A49B02FFFF0800DF
:1031200026002900FFFF29002C00290001040000CF
:10313000040400001400219D006C21225400002191
:103140001C530000211E5300049B000000000001DE
:1031500003000A0500214E0004990000020000024D
:1031600006000521001C80000B1C214E00048E006F
:103170000CA00022461C9D00D2A4214F00001C215F
:103180004E00006B35980001060000050B00004260
:10319000001C81000CA00022461C9D00D2A41E2110
:1031A0004E000491000CA00022461E9D00D2A41CDB
:1031B0001E91000EA00022461E1C6C9D00D2A42170
:1031C0004F0000214E00001C6B221B041E1C6C9E35
:1031D00000D59B0001000000020200FF02000F9AD0
:1031E0000000000102010700FF2A00214E00047DBB
:1031F000A10831092B1C214E00040A6C90001722F3
:103200001C214F00001C351200FF687A397900013B
:1032100094FFE5229A00010001020205000450001B
:103220002122930005039822A60020B0004322A586
:10323000002032214E00042B1C234E00048D00314F
:10324000214F000032234F000032214E00002B237B
:103250004E00002B1C7900FF7E0014231C79000116
:1032600035231C7900013586FFED029803980298FA
:103270000001000000020A0004250022840022222E
:103280004E0004214E00048D00172103092209215C
:103290004E00049C005801B00007039400040298FB
:1032A000000100020E0205000A9300214E00042BCB
:1032B000224E00042D1C1E9E00662A04214F000091
:1032C00032224F000033214E00002A06224E000019
:1032D0002A081B061B088D00381B062A0A1B041B24
:1032E000066B2A0C1B0A1B0C8F0023231B0A352597
:1032F00004241B0A3525051604160586000A160443
:103300001605607B99790A0194FFDC94002F1B0459
:103310007904FF7E0027231B06790601357B2A0AE4
:10332000241B08790801357B2A0C1B0A1B0C8C0016
:10333000091B0A1B0C6C9994FFD71C1E6C99000189
:10334000070206060D0004A100214F000032214EA5
:1033500000001D6B2A07214E0000214E00046B2A3D
:1033600009224F000033224E00001F6B2A091F80E4
:1033700000251D8000211DD8214E0004D81B05D832
:10338000CADAB400121FD8224E0004D81B05D8CACE
:10339000DAB5000502981B057905FF83004D231B54
:1033A0000779070135250B241B0979090135250CFF
:1033B000160B160C87000694FFDF17B0002B160BB8
:1033C0009E0035250B160C9E0035250C160B160C91
:1033D00087000694FFC3160B9E0034160C9E003423
:1033E00087000694FFB302980398000102020603C7
:1033F0000700045500214F000032214E00001C6BD5
:103400002D214E0000214E00046B2A04224F0000A3
:1034100033224E00002A04224E00042A061C80009B
:103420000E1C214E00041B066C91000502987906C3
:10343000FF1B06800015231E79020135241B047929
:1034400004013586FFEB029803980001000000029A
:1034500005000408002122099C0059019800010080
:1034600000000207000410002122214E0004224E19
:1034700000046C9C0059019800000001080106003E
:103480000A3100092B214E00002D214F000031216F
:103490004E00042A04092A061B061B048F0016117D
:1034A0001F1C6D221E790201357B6B2B790601945E
:1034B000FFE91C9900000200000206000A08002132
:1034C0001C099C005D009900000401040305000A2A
:1034D0004B00214E0000214E00046B2A04214F00B6
:1034E00000311E810008092D94000D1E214E00049C
:1034F0008E00050899214E00001E6B2A061B061B34
:10350000048F001A221B06357B1C8D000B1B062125
:103510004E00006C9979060194FFE50899000002BD
:1035200000000208000A0D00211C214E00040A6C54
:103530009C005F009900000401040307000A440096
:10354000214E00002A04214F000031214E00001EB0
:10355000214E00048E000C214E00040A6C940004DD
:103560001E6B2A061B061B048E001A221B06357BC7
:103570001C8D000B1B06214E00006C997906FF94F0
:10358000FFE5089900010000000205000A0800217B
:1035900022099C00610199000102020D0307000A43
:1035A000B400214F000032224F000033214E0000B2
:1035B000214E0004224E00046C6B2D1C214E000491
:1035C0008E0019214E00047F00101C7F000C224E3B
:1035D00000047F0005099908991C810005092B2228
:1035E0004E00047F00051C99224E00002A04241B73
:1035F00004352506214E00001C6B2A071B071E9070
:103600000012231B0735160686000979070194FF6F
:10361000EE1B071E91000508991B070A6B2A091B60
:1036200009224E00046B0A6C2A0B1B040A6B2A0D3C
:103630001B091B0B8F001A231B0979090135241B59
:103640000D790D013586FFEB79070194FFB11B075A
:10365000214E00006C990000020000020600FF0BE2
:1036600000211C214E00049C0063009A000004000D
:1036700000030900FF53001C81000CA00022461C1F
:103680009D00D2A41E214E000491000CA0002246F1
:103690001E9D00D2A41C1E91000EA00022461E1CDE
:1036A0006C9D00D2A41C7F000F1E214E00048D00D3
:1036B0000721940017A0002046214E00001C6B1E1D
:1036C0001C6C214F00009D008B9A0001000102023A
:1036D0000900FF3F00229C0051002B1C7F000521A8
:1036E0009A214E00047D1C7D5FA105322109214EE7
:1036F000000423099C00530122091C23214E0004CD
:103700009C005301A000204609214E00041C6B239D
:103710009D008B9A0000020106030900FF83001739
:103720001886007F214E00042D082A04214F000036
:1037300031214E00002A067904011B041E8F00115E
:10374000221B061B046B351787FFEF9400031B0435
:103750001E8F004F1E7DA10531092D1E1B048F00F9
:1037600012221E221B061E6B353A79020194FFEECF
:103770001B041E8F0022221B061B046B357B2D228F
:103780001B041E177B8D0007189400051E7D3A79D7
:10379000040194FFDEA0002046091E229D008B9AA2
:1037A000219A0000000103010900FF6C00092B1C95
:1037B000214E00048F0020214F0000214E00001CEC
:1037C0006B352819199E003486000694000B790089
:1037D0000194FFDE219A214E00047DA10531214F85
:1037E0000000214E000022091C9E00D51C214E0025
:1037F000048F001A221C214F0000214E00001C6B78
:10380000359E00343A79000194FFE4A00020460977
:10381000214E0004229D008B9A0000000103010943
:1038200000FF6C00092B1C214E00048F0020214F4B
:103830000000214E00001C6B352819199E003586AA
:10384000000694000B79000194FFDE219A214E00BE
:10385000047DA10531214F0000214E000022091CEA
:103860009E00D51C214E00048F001A221C214F00FF
:1038700000214E00001C6B359E00353A7900019402
:10388000FFE4A000204609214E0004229D008B9AEF
:103890000000000106010600FF5800214E00042B25
:1038A000092D214E00002A04214F0000311E1C8FDB
:1038B0000014221B041E6B3510208A0009790201B6
:1038C00094FFED1E1C8F0016221B041C6B0A6C3526
:1038D00010208A00097900FF94FFEB1E82000B1C68
:1038E000214E00048F000D211E1C9C0063009400DB
:1038F00004219A0000000000010200FF0200219A4A
:103900000000000100010900FF1600214E00047DA7
:10391000A105312109214E000422099C00530122F6
:103920009A0001000000010202FF10002185000939
:1039300015002D940008219C0016009A000100003B
:1039400000010402FF0900A0002046219D00849A86
:103950000001040000030802FF0B00A00020462124
:103960001C1E9D00859A0000010000010202FF0E4E
:103970000017B0000915002B94000615002C9A00C2
:1039800000010100010802FF130003A10546091709
:103990003A30A0002046090A219D008B9A000002BF
:1039A0000000010502FF07001C110A9E00459A0055
:1039B00000040000010702FF0700B9110A9E005829
:1039C0009A00000000000104000007002111109D72
:1039D00000B09B0000020000020400001200219DC4
:1039E000006C211C7DA10554000021025000049BA5
:1039F000000100000002060000140021229C00517A
:103A00000011106B9D00B021229C007801449B00A6
:103A1000000000000103000A0500214E000099008B
:103A2000000000000103000A0700214F0000A37BF3
:103A3000990000000100010900002100214F000051
:103A4000A3A10531214F0000092209214E00009E4B
:103A500000D5212254000021025000049B000002E6
:103A60000200020500001E00214631A71C214F0064
:103A700000A37B910008211C9D00B622A894000899
:103A80003222A823A49B02FFFF040015001800FFA8
:103A9000FF18001B00180000020102020900003D8F
:103AA00000214F0000A37B0A6B0B6D2D1E81000CC3
:103AB000147FFFFFFF2D94000A1C1E9100051C2D92
:103AC0001E7DA10531214F0000092209214E000071
:103AD0009E00D5212254000021025000049B0000CA
:103AE000020200020600008100214631A71C81006D
:103AF0000CA00022461C9D00D2A41C214F0000A354
:103B00007B910008211C9D00B6214E00001C8F00F7
:103B10002D214B0004B00007219D00B4214E000070
:103B20001C8F003E214F0000214E0000023A21462A
:103B30004E00000A6B53000094FFE4211C53000068
:103B4000214B0004B0001B1C83000A219D00B4948B
:103B50000010211010A10554000021025000042281
:103B6000A89400083222A823A49B02FFFF04007837
:103B7000007B00FFFF7B007E007B00000202000252
:103B80000500052700214631A71C80000B1C214E93
:103B900000008E000CA00022461C9D00D2A4214FE4
:103BA00000001C3522A8983222A823A402FFFF049B
:103BB0000021002200FFFF22002500220001060252
:103BC00000050B00004F00214632A71C81000CA00D
:103BD0000022461C9D00D2A41E80000B1E214E0018
:103BE0000091000CA00022461E9D00D2A41C1E9134
:103BF000000EA00022461500319D00D1A4214F00E7
:103C0000001C221B041E1C6C9E00D523A8940008D7
:103C10003323A824A49B02FFFF040046004900FFB1
:103C2000FF49004C00490000030200030500003674
:103C300000214631A71C80000B1C214E00008E0085
:103C40000CA00022461C9D00D2A4214B0004B00011
:103C500007219D00B4214F00001C193A22A89400AE
:103C6000083222A823A49B02FFFF04002D0030008D
:103C7000FFFF30003300300001000200020300FFAC
:103C80001500214632A721229E00A89C007801231E
:103C9000A89A3323A824A402FFFF04000F001000F9
:103CA000FFFF10001300100001000204020900FFD2
:103CB0004600224632A722850008229E00A8312213
:103CC0009C0051002B214E00001C6B2D1E214F002B
:103CD00000A37B910008211E9D00B622091C214FE4
:103CE0000000214E00009C005301211E53000021C2
:103CF00023A89A3323A824A402FFFF040040004114
:103D000000FFFF41004400410001000203020900DE
:103D1000FF3B00214632A722A326214E0000177B3D
:103D20006B2C1D214F0000A37B910008211D9D00DD
:103D3000B62209214F0000214E0000177B9E00D5BE
:103D4000211D5300002123A89A3323A824A402FF95
:103D5000FF040035003600FFFF3600390036000151
:103D6000040202040900FF3A00214632A7214E0056
:103D7000001E6B2A041B04214F0000A37B91000945
:103D8000211B049D00B6221C214F0000214E000083
:103D90001E9E00D5211B045300002123A89A332323
:103DA000A824A402FFFF040034003500FFFF350003
:103DB0003800350000010000020300FF0A0021174F
:103DC0009E00AB9C0078019A0000010202020900EB
:103DD000FF3400214631A7214E00000A6B2C1D2123
:103DE0004F0000A37B910008211D9D00B6214F00CC
:103DF0000021464E0000410A6B530000173A212271
:103E0000A89A3222A823A402FFFF04002E002F004C
:103E1000FFFF2F0032002F0000020000020400FF0D
:103E20000A00211C9E00AD9C0078019A000004004D
:103E300000020600FF0A0021B99E00AE9C00780136
:103E40009A0000040202030B00FF6A00214631A71A
:103E50001C81000CA00022461C9D00D2A41E214EF5
:103E60000000910008214E00002D1C1E91000BA0A7
:103E70000022469D00D0A41E1C6C2A041B04830053
:103E80002F214B0004B00007219D00B4214F0000FA
:103E90001C1B046B214F00001C214E00001E6C9E59
:103EA00000D521464E00001B046C5300002122A8BF
:103EB0009A3222A823A402FFFF040064006500FFD9
:103EC000FF65006800650000020200020B00FF4D64
:103ED00000214631A71C80000B1C214E00008E00E3
:103EE0000BA00022469D00D0A4214B0004B0000787
:103EF000219D00B4214F00001C0A6B214F00001CC3
:103F0000214E00001C6C0A6C9E00D521464E00001C
:103F10000A6C5300002122A89A3222A823A402FF8F
:103F2000FF040047004800FFFF48004B0048000125
:103F3000020200030500FF1600214632A7211C22C1
:103F40009E00A89C00820123A89A3323A824A402DF
:103F5000FFFF040010001100FFFF1100140011000A
:103F600001020204030B00FF7E00214632A71C80E1
:103F7000000B1C214E000091000BA00022469D006A
:103F8000D0A422850008229E00A831229C00510066
:103F90002D214E00001E6B2A041B04214F0000A39C
:103FA0007B91000C211B049D00B694000E214B0058
:103FB00004B00007219D00B4214F00001C214F00D8
:103FC000001C1E6B214E00001C6C9E00D522091E99
:103FD000214F00001C9C005301211B0453000021B1
:103FE00023A89A3323A824A402FFFF0400780079B1
:103FF00000FFFF79007C00790001020203030B003F
:10400000FF7000214632A71C80000B1C214E0000CF
:1040100091000BA00022469D00D0A422A328214E8F
:104020000000197B6B2E1F214F0000A37B91000B1A
:10403000211F9D00B694000E214B0004B000072103
:104040009D00B4214F00001C214F00001C197B6B08
:10405000214E00001C6C9E00D52209214F00001C3F
:10406000197B9E00D5211F5300002123A89A3323DA
:10407000A824A402FFFF04006A006B00FFFF6B008E
:104080006E006B0000030000030500FF0B00211C05
:10409000199E00AB9C0082019A0000030202030BF0
:1040A00000FF5200214631A7214E00000A6B2E1F4F
:1040B000214F0000A37B91000B211F9D00B69400AF
:1040C0000E214B0004B00007219D00B4214F0000D9
:1040D0001C214F00001C0A6B214E00001C6C9E002E
:1040E000D5214F00001C193A211F5300002122A89E
:1040F0009A3222A823A402FFFF04004C004D00FFC7
:10410000FF4D0050004D0000040000030600FF0BAF
:1041100000211C1E9E00AD9C0082019A000006003A
:1041200000030800FF0B00211CBB9E00AE9C008218
:10413000019A0000000205010900FF4F00214631ED
:10414000A7214B0004B00007219D00B4214E0000C0
:104150000A6C2B1C0A6C0A722D1E800029214F004C
:10416000001E352504214F00001E214F00001C1E9B
:104170006C353A214F00001C1E6C16043A7902FF80
:1041800094FFD92122A89A3222A823A402FFFF0477
:104190000049004A00FFFF4A004D004A00000000AD
:1041A00000010400FF0900A0002046219D008A9A1A
:1041B000000000000001030000060021035000047D
:1041C0009B0000000000010200FF0500214F0000DD
:1041D0009A0000000000010200000500219D00433C
:1041E0009B000100000002030000060021229D0048
:1041F000449B0000020000020200000500219D0017
:10420000439B0000000000010200000500219D000A
:104210006C9B00000000000000030B000000020681
:10422000FEFA05000300000000000000000002028A
:104230000008009E00719C0045009B0000000000EB
:10424000000402000C00A00003460F9D00125E0057
:10425000049B0000000000000003090000000001B2
:10426000FFFF020001000000000001FFFF0200014B
:10427000090000000101FEFF030001000000000032
:10428000000000000003090000000001000002031C
:1042900000000A00219D006C21175200009B0000C5
:1042A000000000010400001500219D006C219E000B
:1042B000D852000021214D0000219D00DB9B000110
:1042C000000000020400002100219D006C228500F6
:1042D0000BA00010469D0040A4219E00D852000073
:1042E00021214D0000229D00DB9B00000000010108
:1042F0000300001E0021214D00009D00DA2617B0AA
:10430000000BA00011469D0042A421214D00009DFC
:1043100000D99B00000000000101000001009B008B
:10432000000400FC01000300000000000000000089
:1043300000030A00000000000000000402FF0B0060
:10434000A00024469E00DC9D00DD9A0000000000D5
:104350000003020A05009E00DC7B990000000001BA
:1043600001030004130021214D00009D00DA2617EF
:10437000B20007039400040298000000000000004F
:104380000300000000000000000102000005002101
:104390009D006C9B0001000000020300000A002148
:1043A0009D006C21225400009B00010000000203CC
:1043B00000000A00219D006C21225400019B000294
:1043C000000000030300000F00219D006C21225417
:1043D000000021235400019B0000000000010200A6
:1043E000FF0500214F00009A0000000000010200BC
:1043F000000500219D003B9B000000000001020021
:10440000000500219D00789B0000000000010200D3
:10441000FF04001500329A000100000002030000B2
:104420000A00219D006C21225400009B0000000026
:104430000000000309000000000100FF010003FF6D
:1044400000000000010000010402FF1F0017B2007D
:104450000A179E00F18B000BA00012469D0043A49A
:10446000A0002846179E00F29D00F09A000100FF70
:1044700000010003FF00000000000000010400FF35
:104480000F00A0002046214F00009E00F49D0084F4
:104490009A000100FF000100030900000000000075
:1044A00000010200090800214F00009E00F698005C
:1044B0000101FFFF020003FF0000000001000002F5
:1044C0000500FF270017B2000E17214F00009E00C5
:1044D000F68B000BA00012469D0043A4A0002846C6
:1044E000214F0000179E00F89D00F09A0001000186
:1044F00001010402FF33000226179E00F189002B00
:10450000179E00F231A0002046229E00F49D0084F8
:10451000219C001801B0000CA0002846229D00F04C
:104520009A17035F2694FFD40F9A000100FE000241
:10453000000100000000000000000103000009006D
:1045400021214F00009D00FB9B00000000000102A4
:1045500000000500219D00789B0000000000010282
:1045600000000500219D003B9B000305040204029E
:1045700006330069007E0086008E009600B500DFDD
:1045800000FE0006010E0116011E013C014401550A
:10459000016A0172019601BD01E201EA01F201FA2C
:1045A000010202220243024B0267026F027702936A
:1045B000029B02B902C102C902F402FC02040319FF
:1045C00003380364036C03A303D803DE03E503EBA2
:1045D00003F30313043604490413006A6176612E61
:1045E000696F2E494F457863657074696F6E060078
:1045F0004F424A45435406004F424A454354060041
:104600004F424A4543541D006A6176612E6C616ECB
:10461000672E41726974686D657469634578636576
:104620007074696F6E28006A6176612E6C616E67C6
:104630002E4172726179496E6465784F75744F6668
:10464000426F756E6473457863657074696F6E1D33
:10465000006A6176612E6C616E672E4172726179BB
:1046600053746F7265457863657074696F6E060088
:104670004F424A45435406004F424A4543540600C0
:104680004F424A45435406004F424A4543541C009A
:104690006A6176612E6C616E672E436C6173734341
:1046A000617374457863657074696F6E06004F427C
:1046B0004A4543540F006A6176612E6C616E672E25
:1046C0004572726F7213006A6176612E6C616E675B
:1046D0002E457863657074696F6E06004F424A45D7
:1046E000435422006A6176612E6C616E672E496CBC
:1046F0006C6567616C417267756D656E7445786352
:10470000657074696F6E25006A6176612E6C616EEA
:10471000672E496C6C6567616C546872656164539F
:1047200074617465457863657074696F6E23006A9F
:104730006176612E6C616E672E496E6465784F7587
:10474000744F66426F756E64734578636570746903
:104750006F6E06004F424A45435406004F424A4599
:10476000435406004F424A45435406004F424A45CF
:1047700043541E006A6176612E6C616E672E4E7521
:104780006C6C506F696E746572457863657074699E
:104790006F6E1F006A6176612E6C616E672E4E75BA
:1047A0006D626572466F726D617445786365707491
:1047B000696F6E06004F424A4543541A006A61769B
:1047C000612E6C616E672E4F75744F664D656D6F0F
:1047D00072794572726F7206004F424A4543540621
:1047E000004F424A4543541A006A6176612E6C615B
:1047F0006E672E52756E74696D6545786365707469
:10480000696F6E06004F424A4543541C006A617648
:10481000612E6C616E672E537461636B4F766572A7
:10482000666C6F774572726F7206004F424A45435D
:104830005406004F424A45435429006A6176612E6E
:104840006C616E672E537472696E67496E64657829
:104850004F75744F66426F756E647345786365700B
:1048600074696F6E06004F424A45435406004F423A
:104870004A45435413006A6176612E6C616E672E5F
:104880005468726F7761626C651D006A6176612E93
:104890006C616E672E5669727475616C4D616368E8
:1048A000696E654572726F722A006A617661782E50
:1048B0006461726A65656C696E672E766D2E436CF5
:1048C000617373556E6C6F61646564457863657080
:1048D00074696F6E06004F424A45435435006A6161
:1048E0007661782E6461726A65656C696E672E7692
:1048F0006D2E496E667573696F6E556E6C6F61646F
:10490000446570656E64656E63794578636570743F
:10491000696F6E33006A617661782E6461726A65D0
:10492000656C696E672E766D2E4E61746976654D85
:104930006574686F644E6F74496D706C656D656EFB
:104940007465644572726F72040074727565050057
:1049500066616C736504006E756C6C060072616450
:104960006978201E00206C657373207468616E2066
:104970004368617261637465722E4D494E5F5241A6
:10498000444958210020677265617465722074681B
:10499000616E204368617261637465722E4D415887
:1049A0005F52414449581100737263426567696EF2
:1049B000203E20737263456E641600436C6173730E
:1049C000556E6C6F61646564457863657074696F7A
:1049D0006E05007B0100070F001F004700500051CB
:1049E0000157017201000100FF6461726A65656C24
:1049F000696E673300010206001B0000000102FF20
:104A00000000000301000000010E0001010B000284
:104A1000000001190C00010001010000030407025D
:104A2000010000000001020D1C002C0054006B006E
:104A30007B0086009100AD00B800C300CE00D90015
:104A4000E40000000000010200000500219D010CAF
:104A50009B0000020000020400001D00A00121468E
:104A60009D01AF1500029C0178011C7DAD9C017C6D
:104A7000009C0116009E00069B000100000002043D
:104A800000000C00A0012046229D01899E00069B8B
:104A90000000000000010200000500219D016C9B48
:104AA00000000300FD020003000000000100FF0001
:104AB00001000300000000010000000103020011DA
:104AC000002185000BA00117469D0168A4219E00CE
:104AD000059B00000000000000030A000000000029
:104AE00000000000030A00000000000000000003B6
:104AF0000A000000000000000000030900000000A0
:104B00000100FF010003FF0000000000000000059D
:104B100002001200A0010346A00000469D00009D77
:104B200001125E01049B0003000000000006030068
:104B300009001100190006004F424A45435406007F
:104B40004F424A454354000005010300626173650A
:104B500000810100070F002000440057005B016145
:104B6000017801000100FF776B70665F76697274EF
:104B700075616C0001020600170000000119FF00BA
:104B8000000002010000000000000100000119FF08
:104B900000010001010000020411000002030102F3
:104BA0000302030000000101050900021328003878
:104BB00000440054005F006A00750080008B00967E
:104BC00000A100AC00B700C200CD00D800E300EEA9
:104BD00000F90000000000010200000500219D0115
:104BE0006C9B00000000000101000001009B000020
:104BF000000000010200000500219D016C9B0000E7
:104C0000000000000003080000000101FFFF020097
:104C100003000000000102FFFE030003000000008B
:104C2000000100FF010003000000000101FFFF027E
:104C30000003090000000102FFFE03000300000062
:104C4000000101FFFF020003040000000102FFFE5B
:104C5000030003000000000000000000000300004B
:104C60000000000000000000030000000000000041
:104C700000000003FF000000000100FF0100030826
:104C8000000000000100FF01000304000000000517
:104C900000FB05000304000000000900F709000301
:104CA00004000000000000000000030900000003F1
:104CB000001600000006020007000F0006004F4229
:104CC0004A45435406004F424A45435405010300F8
:104CD00062617365000000000000000011241FBE27
:104CE000CFEFD1E2DEBFCDBF00E00CBF1AE0A0E005
:104CF000B2E0ECE5FEE201E00BBF02C007900D92CE
:104D0000A439B107D9F72EE1A4E9BAE001C01D9298
:104D1000AE31B207E1F70E941F8E0C942C970C94D1
:104D200000001F920F920FB60F9211242F933F9302
:104D30008F939F93AF93BF938091940A9091950A1C
:104D4000A091960AB091970A30911C0B23E0230F93
:104D50002D3720F40196A11DB11D05C026E8230FB3
:104D60000296A11DB11D20931C0B8093940A909371
:104D7000950AA093960AB093970A8091980A909109
:104D8000990AA0919A0AB0919B0A0196A11DB11DA2
:104D90008093980A9093990AA0939A0AB0939B0AD9
:104DA000BF91AF919F918F913F912F910F900FBE27
:104DB0000F901F9018952FB7F8946091940A7091F6
:104DC000950A8091960A9091970A2FBF08958F9225
:104DD0009F92AF92BF92CF92DF92EF92FF926B01C0
:104DE0007C010E94DB264B015C010E94DB266819D6
:104DF00079098A099B09C616D706E806F906A8F7B5
:104E0000FF90EF90DF90CF90BF90AF909F908F90EA
:104E10000895789485B5826085BD85B5816085BD2E
:104E2000EEE6F0E0808181608083EAE7F0E0808157
:104E30008068808308959B01AC011092C00060E8F7
:104E400074E88EE190E00E946A8E21503109410998
:104E500051095695479537952795832F9927809324
:104E6000C5002093C400E1ECF0E080818061808384
:104E7000808188608083808180688083089590919C
:104E8000C00095FFFCCF8093C60008950F931F9339
:104E9000CF93DF93EC018E018881882359F08A300B
:104EA00019F48DE00E943F272196F80180810E942D
:104EB0003F27F1CFDF91CF911F910F9108959B0173
:104EC000AC0160E870E08CE99AE00E940C948CE9F7
:104ED0009AE00C944627CF93DF93CDB7DEB7FE015F
:104EE000369681919191BF010E945F27DF91CF910A
:104EF0000895CF93DF9300D000D0CDB7DEB74B83BA
:104F00005C836D837E8389839A830E94D6274B813D
:104F10005C81BA0189819A810E94E92726960FB6A1
:104F2000F894DEBF0FBECDBFDF91CF910C94533A02
:104F30000895FC0182819CEF980F983090F01F92A9
:104F40008F9382ED92E09F938F930E946B270F9037
:104F50000F900F900F9064E070E080E090E00C9470
:104F6000032B089520E0AC0160E070E06BBFFA0114
:104F7000479156914115510529F0840F951F0396CD
:104F80002F5FF1CF822F0895262F222369F0AC01E5
:104F900060E070E06BBFFA01479156914D5F5F4F43
:104FA000840F951F2150F1CF039608950C94092783
:104FB000CF93DF930E94DB26DC01CB019C01AD0186
:104FC00060E070E080E090E0DF91CF9108950C9474
:104FD000E72690933C0B80933B0B70933A0B6093C6
:104FE000390B1092320B1092310B1092340B10923D
:104FF000330B1092360B1092350B1092380B109227
:10500000370B9093300B80932F0B860F971F909345
:105010002E0B80932D0B0895FC0136972081269549
:1050200026953181432F4295440F440F407C842FB5
:10503000822B932F969596958E0F9F1F20912F0B65
:105040003091300B2817390729F4F093300BE09397
:105050002F0B0895148208958091390B90913A0B8B
:10506000089580912D0B90912E0B20912F0B309154
:10507000300B821B930B0895E1E3FBE020E030E06E
:1050800041915191452B41F4F901EE0FFF1FEF5C67
:10509000F44F9183808308952F5F3F4F2430310573
:1050A00079F76AE070E080E090E00C94032BE1E394
:1050B000FBE080E090E021913191232B09F00196F3
:1050C0002BE0E933F207B9F70895E1E3FBE0208133
:1050D00031812817390711F41182108232962BE0A2
:1050E000E933F207A1F708950F931F93CF93DF934E
:1050F000E0913B0BF0913C0BA0912F0BB091300B4A
:10510000AC01460F571F11E0EA17FB0700F5248199
:1051100030E08217930720F42417350708F414832E
:105120004217530718F42481261B2483C081C69597
:10513000C695D1810D2F0295000F000F007C202F06
:105140002C2B3D2F36953695E20FF31FDDCFDF91E7
:10515000CF911F910F91089580913B0B90913C0B43
:105160000895FC014081469546955181652F6295D1
:10517000660F660F607C262F242B352F36953695CB
:10518000280F391F80912F0B9091300B281739076A
:1051900018F080E090E00895C9010895CF92DF9261
:1051A000EF92FF920F931F93CF93DF93E0913B0B0E
:1051B000F0913C0B20912F0B3091300BC12CD12C56
:1051C0007601E217F30738F584815081418181111E
:1051D00011C0742F7295770F770F707C652F6695CD
:1051E0006695872F862B942F96959695C80ED91E77
:1051F000E11CF11CD382C28256955695642F6295AC
:10520000660F660F607C862F852B942F969596955A
:10521000E80FF91FD6CFE1E3FBE0A191B191109720
:1052200081F08D919C911197009739F0EC012697B0
:105230002A813B81821B930B02C080E090E08D931A
:105240009C932BE0E933F20741F760E070E0809136
:10525000270B9091280B0E94EE2AC0913B0BD09116
:105260003C0B80912F0B9091300BC817D907F0F4AD
:105270008881869586959981292F2295220F220F64
:10528000207C022F082B192F169516958C818823C8
:1052900051F08A819B81A801BE019E01281B390B18
:1052A000C9010E94B693C00FD11FDBCF8C199D0995
:1052B0009093300B80932F0BDF91CF911F910F9123
:1052C000FF90EF90DF90CF9008950F931F93CF93AF
:1052D000DF93E0913B0BF0913C0B20912F0B309131
:1052E000300BE217F307D0F48481863010F482E0AB
:1052F00001C080E040814C7F482B40834695469515
:105300005181652F6295660F660F607C862F842B16
:10531000952F96959695E80FF91FE3CF60E070E022
:1053200080912B0B90912C0B0E94EE2AE1E3FBE085
:10533000A191B191109769F00D90BC91A02D10979B
:1053400041F016978C91982F937019F48C7F81609F
:105350008C938BE0E933F80759F7C0913B0BD09160
:105360003C0B00E010E020912F0B3091300BC21766
:10537000D307F0F488818370813049F4BE018091B5
:10538000290B90912A0B0E94EE2A0F5F1F4F288154
:10539000269526953981432F4295440F440F407C32
:1053A000842F822B932F96959695C80FD91FDBCF0C
:1053B000012B99F6E0913B0BF0913C0BE217F307C0
:1053C000B0F44081842F837009F41482542F5695D1
:1053D00056954181642F6295660F660F607C862F1B
:1053E000852B942F96959695E80FF91FE7CF0E948D
:1053F000CE2860E070E08091250B9091260BDF9124
:10540000CF911F910F910C94EE2A0F931F93CF937E
:10541000DF931F92CDB7DEB780FD01968C010A5F46
:105420001F4F80912D0B90912E0B20912F0B3091BF
:10543000300B821B930B8017910720F469830E9425
:1054400065296981E0912F0BF091300B80912D0B34
:1054500090912E0B8E1B9F0B80179107D8F0902FE9
:10546000990F990F80818370892B8083912F990FD9
:10547000990F802F8295869586958370892B8183DD
:1054800064830E0F1F1F1093300B00932F0BCF015F
:10549000069602C080E090E00F90DF91CF911F91BF
:1054A0000F910895BF92CF92DF92EF92FF920F93E8
:1054B0001F93CF93DF9300D01F921F92CDB7DEB71B
:1054C00000913B0B10913C0B34EFE32E32E0F32EB6
:1054D00045E0B42ECE0101966C0180912F0B909186
:1054E000300B0817190738F5F8018481893078F0F6
:1054F0001F928F93FF92EF921F92BF92DF92CF92F3
:105500000E94CF930FB6F894DEBF0FBECDBFF80157
:105510002081269526953181432F4295440F440FD3
:10552000407C842F822B932F96959695009719F0A7
:10553000080F191FD2CF0F900F900F900F900F9060
:10554000DF91CF911F910F91FF90EF90DF90CF905F
:10555000BF900895CF93DF93DC019C9111968C91BD
:105560001197E92FF82F309789F1E617F70751F5D2
:105570001092220B1092210BCAEFD2E02091210B46
:105580003091220B8091230B9091240B281739071F
:1055900084F4DF93CF930E946B278091210B90912D
:1055A000220B01969093220B8093210B0F900F906A
:1055B000E5CF8EEF92E09F938F930E946B270F9021
:1055C0000F9009C00280F381E02DCDCFFB019283C3
:1055D00083836D937C93DF91CF9108950F931F93F5
:1055E000CF93DF93EC018B01209741F0E881F981A3
:1055F000C80119950A80DB81C02DF6CFDF91CF91CC
:105600001F910F910895CF93DF9300D01F92CDB7D4
:10561000DEB7FB013397E930F10508F075C1EE58AC
:10562000FF4F1092220B1092210B0AEF12E00C9404
:10563000AB8E4091210B5091220B2091230B309186
:10564000240B42175307CCF41F930F9369837A837B
:105650008B839C830E946B272091210B3091220B1E
:105660002F5F3F4F3093220B2093210B0F900F9011
:105670009C818B817A816981DCCF21E233E026C075
:105680004091210B5091220B2091230B3091240B40
:1056900042175307CCF41F930F9369837A838B834C
:1056A0009C830E946B272091210B3091220B2F5F4E
:1056B0003F4F3093220B2093210B0F900F909C8132
:1056C0008B817A816981DCCF28E333E03F932F938C
:1056D00069837A838B839C830E946B270F900F9042
:1056E00069817A8151C14091210B5091220B209107
:1056F000230B3091240B42175307CCF41F930F93C5
:1057000069837A838B839C830E946B272091210B72
:105710003091220B2F5F3F4F3093220B2093210BB0
:105720000F900F909C818B817A816981DCCF28E575
:1057300033E0CCCF4091210B5091220B2091230BD1
:105740003091240B42175307CCF41F930F936983B6
:105750007A838B839C830E946B272091210B30914D
:10576000220B2F5F3F4F3093220B2093210B0F9082
:105770000F909C818B817A816981DCCF27E733E0B0
:10578000A5CF4091210B5091220B2091230B3091FA
:10579000240B42175307CCF41F930F9369837A832A
:1057A0008B839C830E946B272091210B3091220BCD
:1057B0002F5F3F4F3093220B2093210B0F900F90C0
:1057C0009C818B817A816981DCCF23E933E07ECFB4
:1057D0004091210B5091220B2091230B3091240BEF
:1057E00042175307CCF41F930F9369837A838B83FB
:1057F0009C830E946B272091210B3091220B2F5FFD
:105800003F4F3093220B2093210B0F900F909C81E0
:105810008B817A816981DCCF2DEA33E057CF4091CB
:10582000210B5091220B2091230B3091240B421716
:105830005307CCF41F930F9369837A838B839C83E4
:105840000E946B272091210B3091220B2F5F3F4F3D
:105850003093220B2093210B0F900F909C818B8112
:105860007A816981DCCF29EC33E030CF4091210B84
:105870005091220B2091230B3091240B4217530798
:10588000CCF41F930F9369837A838B839C830E944C
:105890006B272091210B3091220B2F5F3F4F3093CC
:1058A000220B2093210B0F900F909C818B817A818A
:1058B0006981DCCF23EE33E009CF4091210B509179
:1058C000220B2091230B3091240B42175307CCF469
:1058D0001F930F9369837A838B839C830E946B272A
:1058E0002091210B3091220B2F5F3F4F3093220BE1
:1058F0002093210B0F900F909C818B817A8169817D
:10590000DCCF22E034E0E2CE1092220B1092210B89
:105910000AEF12E04091210B5091220B2091230BB2
:105920003091240B42175307CCF41F930F936983D4
:105930007A838B839C830E946B272091210B30916B
:10594000220B2F5F3F4F3093220B2093210B0F90A0
:105950000F909C818B817A816981DCCF9F938F939B
:105960007F936F9329E234E03F932F9369837A8387
:105970008B839C830E946B270F900F900F900F904A
:105980000F900F907A8169812091A91B233058F4E0
:105990006093A91B60E070E080911F0B9091200B39
:1059A0000E94EE2AF7CFCB010E942C97009739F086
:1059B000FC01369722813381821B930B089580E08E
:1059C00090E0089563E070E080E190E00E94052A95
:1059D000FC01009771F013861286158614861382D7
:1059E00012821582148217861686178216821186F5
:1059F0001086CF0108950C940C28CF93DF93FC01FF
:105A0000C285D385209749F02E853F852115310524
:105A100011F0E901F9CF209749F4FC0173876287FF
:105A20008BE090E0FB019387828711C07F876E87B0
:105A30008A819B810196A0E0B0E0ABBFFC01879119
:105A40002A853B85280F311DFB0133872287FB0107
:105A500017861686DF91CF910895DC011A96ED9195
:105A6000FC911B9780E090E0309729F00684F78541
:105A7000E02D0196F9CF0895DC011A96ED91FC9185
:105A80001B9780E090E0309741F0E617F70731F080
:105A90000684F785E02D0196F6CF80E00895DC01BD
:105AA0001A96ED91FC911B9780E090E0309741F0C1
:105AB0008617970741F00684F785E02D0196F6CF0B
:105AC00080E090E00895CF0108950F931F93CF9346
:105AD000DF938B01FC01C285D385209761F088811B
:105AE0009981B80104960E949759811107C00E84CC
:105AF000DF85C02DF2CF80E090E001C0CE01DF91C4
:105B0000CF911F910F9108950F931F93CF93DF9320
:105B10008B01FC01C285D385209759F0B801CE01D5
:105B20000E94CC561816190634F00E84DF85C02D5D
:105B3000F3CF81E001C080E0DF91CF911F910F9101
:105B400008950F931F93CF93DF938C01EB01DC013A
:105B50001C96ED91FC911D9727E03097A9F0A48544
:105B6000B585109769F012968D919C9113978C17BB
:105B70009D0711F4228704C00D90BC91A02DF1CF98
:105B80000288F389E02DE9CF8A819B810196A0E00C
:105B9000B0E0ABBFFC018791682F70E08A859B85E0
:105BA0000E947428F801A285B3851097E9F01A962F
:105BB0008D919C911B972A853B852817390778F48E
:105BC0004A815B814F5F5F4F60E070E06BBFFA011D
:105BD0004791841B91091B969C938E931A971E964E
:105BE0000D90BC91A02DE1CFBE01C8010E943C2DBB
:105BF000682F70E00E84DF85C02D6115710531F4CA
:105C0000D8011B96DC93CE931A9708C06150710996
:105C1000C8010E944F2DFC01D787C687DF91CF9125
:105C20001F910F910895262FFC0160857185822FA9
:105C30000E94A4530895CF93DF93FB01EC01AC8540
:105C4000BD851097C1F052968D919C915397009706
:105C500011F0DC01F8CF18968D919C91199701965F
:105C6000918780875396FC93EE935297138A128AFA
:105C7000DF91CF91089511861086DC011D967C93EB
:105C80006E931C97F3CFDC011C96ED91FC911D9750
:105C9000E617F70769F4228933891D963C932E9302
:105CA0001C970895828993898617970719F0FC013C
:105CB0003097C1F7DB0152968D919C915397938B4E
:105CC000828B0895DC011C96ED91FC911D9780E07C
:105CD00090E0309729F00288F389E02D0196F9CF02
:105CE0000895DC011C96ED91FC911D9722E0309700
:105CF00091F0528933898285853051F48089918968
:105D00008617970729F4118A108A2287442319F0ED
:105D1000E52FF32FECCF0895EF92FF920F931F938F
:105D2000CF93DF938C01FC01C485D5852097B1F01A
:105D3000EA88FB888A85873079F4F801828193812B
:105D40008C179D0711F413821282BE01C8010E94B4
:105D5000432ECE010E949137E701E8CFDF91CF912A
:105D60001F910F91FF90EF900895FC018485958518
:105D700020E030E02617370744F4009731F0FC01AB
:105D8000828993892F5F3F4FF5CF0895DC011C96E0
:105D9000ED91FC911D97309749F08085918586178C
:105DA000970739F00288F389E02DF5CF80E090E085
:105DB0000895CF010895DC011C96ED91FC911D978B
:105DC00080E090E0309749F022852150263008F499
:105DD00001960288F389E02DF5CF08952F923F9226
:105DE0004F925F926F927F928F929F92AF92BF92EB
:105DF000CF92DF92EF92FF920F931F93CF93DF9397
:105E0000CDB7DEB760970FB6F894DEBF0FBECDBF3B
:105E1000DC011C968D919C911D979F878E870E9417
:105E2000D8272E833F83488759876A877B878C874B
:105E30009D8777247A9488248A9499249A94BFEF32
:105E4000B983EFEFEA83FFEFF88B8E859F85892B6F
:105E500009F469C0AE85BF851A968C911A97823075
:105E600009F447C0833009F055C02C9111963C913C
:105E7000119712964C91129713965C911397149662
:105E80006C91149715967C91159716968C91169790
:105E900017969C91AE80BF80C884D984EA84FB8425
:105EA0000C851D850E942C9019012A01662EB72FA2
:105EB0008C839D83272D382D492D59816A817889BE
:105EC0008F2F9E2FAFEF0E943E90E1F051016201B3
:105ED000E62CFB2E0C811D810E943590D9F0D0F06C
:105EE000722C832C942C59826A82B88BF02FE12F6C
:105EF00011C0712C812C912C19821A82188AF0E021
:105F0000E0E008C0722C832C942C59826A82B88BF2
:105F1000FC81ED81AE85BF8552960D90BC91A02D80
:105F2000BF87AE8792CF272D382D492D59816A81A1
:105F300078898F2F9E2F60960FB6F894DEBF0FBE24
:105F4000CDBFDF91CF911F910F91FF90EF90DF9028
:105F5000CF90BF90AF909F908F907F906F905F9009
:105F60004F903F902F9008950F931F93CF93DF93FF
:105F70008C01EB01FC0182819381009711F00E945A
:105F80005E3EF801D383C283209731F01B86CE0199
:105F90000E94683E81E001C080E0DF91CF911F91B7
:105FA0000F910895CF93DF93EC018A819B810E942A
:105FB000D62C9B838A838A859B850E94D62C9B87BF
:105FC0008A878E859F850E94D62C9F878E8788859D
:105FD00099850E94D62C998788878C859D850E94FB
:105FE000D62C9D878C87DF91CF9108958F929F92B9
:105FF000BF92CF92DF92EF92FF920F931F93CF93B6
:10600000DF931F921F92CDB7DEB77C017A8369833D
:10601000CE0101960E943C28D7011E96ED91FC917D
:106020001F9716962D913C91179769817A814F01A0
:1060300080E090E046E0B42E82179307F1F0AC01C7
:1060400047705527B49E8001B59E100D11240E5F38
:106050001F4F080D191DD801CD90DC90C616D7062C
:1060600041F04730510519F4D4018D909C90019670
:10607000E3CF0115110509F05EC027703327232BEC
:10608000F9F40E94F339FC01009739F4CE0101962E
:106090000E94652880E090E053C0D7011E962D91A4
:1060A0003C911F972115310599F0D9018D919C9153
:1060B000009711F09C01F9CFD901ED93FC930DC02D
:1060C000309759F080819181009739F0FC01FACF27
:1060D000D7011F969C938E931E97D70116968D918C
:1060E0009C9117978770992726E0289F8001299F08
:1060F000100D11240E5F1F4F0E0F1F1FD801149695
:106100001C92149715961C92159789819A81119665
:106110009C938E9313961C921E921297D7011696FB
:106120008D919C911797019617969C938E93169735
:1061300082A98F5F82ABCE0101960E946528C801BB
:106140000F900F90DF91CF911F910F91FF90EF90E3
:10615000DF90CF90BF909F908F9008952F923F92A5
:106160004F925F926F927F928F929F92AF92BF9267
:10617000CF92DF92EF92FF920F931F93CF93DF9313
:1061800000D01F92CDB7DEB79A838983FC010484C7
:10619000F585E02DFC83EB830E94D82719012A01A5
:1061A0003B014C018B819C81892B09F459C0EB8107
:1061B000FC818285833091F4208131814281538139
:1061C0006481758186819781510162017301840127
:1061D0000E94359009F010F482E08287EB81FC8107
:1061E00082858530C9F4A080B180C280D380E480EC
:1061F000F580068117819501A601B701C801A0E0CD
:106200000E943E9049F02A143B044C045D0424F0A3
:1062100082E08287118A108AEB81FC81828584303A
:10622000B9F46089718989819A810E94F62FFC01F5
:10623000848181110DC085818150858381E08483B3
:106240008B819C819383828382E0EB81FC818287B6
:10625000EB81FC810288F389E02DFC83EB83A2CFE4
:106260000F900F900F900F90DF91CF911F910F9192
:10627000FF90EF90DF90CF90BF90AF909F908F9066
:106280007F906F905F904F903F902F900895CF93A5
:10629000DF93EC010E948C2ECE010E94AE30EC8583
:1062A000FD8560E070E08FEF9FEF309781F02285F1
:1062B000223049F423852F5F238730E0821793072C
:1062C00014F4BF01C9010288F389E02DEECFCE019D
:1062D000DF91CF910C94B42FFF920F931F93CF9324
:1062E000DF93DC011E96CD91DC911F9716960D90E1
:1062F000BC91A02DFE0120E030E056E0F52E2A17DB
:106300003B0779F0890107701127F09EA001F19EEB
:10631000500D11244E5F5F4F4E0F5F1F64177507BE
:1063200019F4209789F009C00730110519F401907C
:10633000F081E02D2F5F3F4FE2CF48815981411519
:10634000510511F0EA01F9CFAD0141505109DC01CD
:1063500017965C934E9316974AA941504AAB1696EE
:106360004D915C91179724173507C8F42770332790
:1063700066E0629FD001639FB00D1124AE0FBF1F76
:10638000129647705527649FF001659FF00D112408
:10639000EC0FFD1F329601900D926A95E1F7FC011A
:1063A00026813781A90147705527452BE1F4232B1E
:1063B00081F00684F785E02DEC17FD0739F0808128
:1063C00091818C179D0711F0FC01F9CF1182108289
:1063D00002C017861686CE01DF91CF911F910F91D3
:1063E000FF900C940C28DF91CF911F910F91FF909B
:1063F00008959B01FC01A285B385109711F11A96AF
:106400008D919C911B9728173907B0F012964D91EA
:106410005C9113974F5F5F4F60E070E06BBFFA01D4
:106420004791BC01640F711D2617370728F4BD0181
:10643000E22FE81B8E2F08951E960D90BC91A02D83
:10644000DCCF3F932F9388E494E09F938F930E9437
:106450006B2764E070E080E090E00E94032B60E036
:1064600070E08FEF0F900F900F900F9008950E94A3
:10647000F931362F272F682F70E0832F922F0C943D
:10648000BA570F931F93CF93DF938C01862FF80198
:10649000608571850E94A453EC01DD27BE01C8010F
:1064A0000E943732AC014F5F5F4F60E070E06BBF1E
:1064B000FA0147918C0120E030E02BBFF8010791F1
:1064C00050E0602F70E0CE01DF91CF911F910F91CE
:1064D0000C947259FC018085918508953F924F92EA
:1064E0005F926F927F928F929F92AF92BF92CF9264
:1064F000DF92EF92FF920F931F93CF93DF938C0164
:106500000E943C2D882E0E9472377C01912CB40190
:10651000C8010E944F2DEC01E114F104B1F428816F
:1065200039812C5F3F4F3F932F9384E694E09F93F4
:106530008F930E946B2763E070E080E090E00E9400
:10654000032B0F900F900F900F900E94523EB701B7
:106550000E941B2EF701C084D1844A805B80FFEF2C
:106560004F1A5F0A612C712C6BBEF2014790512CBF
:10657000E12CF12C72E0372EEBE96E2EE4E07E2E5A
:10658000E414F5040CF050C00E94523EB4010E9485
:106590004F2DEC012A813B81C9010296A701440FCE
:1065A000551F840F951FA0E0B0E0ABBFFC018791A1
:1065B00096912C5F3F4F280F391FC901A0E0B0E032
:1065C000ABBFFC0187918F3F59F1BE010E94463954
:1065D0005C01009761F47F926F920E946B2763E0E9
:1065E00070E080E090E00E94032B0F900F900E94DB
:1065F000523EB6010E94C62EFC01B586A4863286A4
:106600000E94683E0E94523EB6010E94C62EFC01C6
:106610008285873029F080E890E00E942343F2CF02
:10662000FFEFEF1AFF0AACCF0E94523EB6010E9464
:10663000C62E7C01BC01C8010E94432EC7010E94E6
:106640009137F80113821282CE01DF91CF911F9111
:106650000F91FF90EF90DF90CF90BF90AF909F9001
:106660008F907F906F905F904F903F9008952F9202
:106670003F924F925F926F927F928F929F92AF92D2
:10668000BF92CF92DF92EF92FF920F931F93CF931F
:10669000DF93CDB7DEB7C954D1090FB6F894DEBF8A
:1066A0000FBECDBF7C016B0129964FAF29972A966B
:1066B0005FAF2A9728962FAF28979B012F5F3F4FF8
:1066C00027963FAF2EAF2797A90122242A94322C78
:1066D0000FEF1FEF80E090E02B01612C712C6BBE5F
:1066E000F201279130E082179307D4F44A01A12CDC
:1066F000B12CABBEF401279136912C0D3D1D490103
:10670000A12CB12CABBEF4016791633021F0653050
:1067100019F4190101C0890101964E5F5F4FDFCF67
:106720000F3F3FEF130721F04FEF2416340631F4EB
:1067300068E070E080E090E00E94032B41015FEF91
:10674000851A950A940140E050E025962CAF3DAFA4
:106750004EAF5FAF25974BBFF901679170E0C8015D
:106760000E94D3558C01009709F4FBC02796AEAC6C
:10677000BFAC279720E030E06BBEF201879190E03C
:10678000281739076CF5C501A0E0B0E0ABBFFC01EC
:10679000879196918C0D9D1DAC0160E070E06BBF00
:1067A000FA014791413069F040F0423071F04630D3
:1067B00089F4F801978386830DC0D8018D939C934B
:1067C00009C0F8019383828305C0D80115969C9374
:1067D0008E9314972F5F3F4FF2E0AF0EB11CCCCFDA
:1067E000D80116968D919C911797019689F0F80122
:1067F00082819381019661F0D80114968D919C91CC
:106800001597019629F0F80180819181019631F464
:1068100068E070E080E090E00E94032BD8018D9149
:106820009C910196A0E0B0E0ABBFFC018791813064
:1068300031F06BE070E080E090E00E94032B5101AA
:10684000C12CD12C25962CAD3DAD4EAD5FAD25971D
:106850004BBFF901879132E0A30EB11C90E0C8163E
:10686000D906E4F4C501A0E0B0E0ABBFFC0167913C
:106870007691680D791DC7010E94652D9601220F42
:10688000331FD8015A96ED91FC915B97E20FF31FED
:1068900091838083BFEFCB1ADB0AD4CFB801C70145
:1068A0000E94FD2CD70118968D919C911997892BE8
:1068B00021F419961C930E93189740E450E0BE0102
:1068C0006F5F7F4FC8010E949D572996CFAC2997D3
:1068D0002A96DFAC2A97A12CB12C28962FAD2897A9
:1068E000822E912CA814B904D4F4D6016D917C9118
:1068F000F8018081918104960E94B159882341F06A
:10690000D60112968D919C911397F80191878087FB
:10691000FFEFAF1ABF0A24E0C20ED11CE3CFB801CB
:10692000C7010E946E328C01DC014D915C914D5F7C
:106930005F4F60E070E06BBFFA0187918F3FA1F07D
:10694000B8010E94C2396C01009731F463E070E035
:1069500080E090E00E94032BB601C7010E941B2E2D
:1069600003C080E090E001C0C801C75BDF4F0FB6F5
:10697000F894DEBF0FBECDBFDF91CF911F910F9175
:10698000FF90EF90DF90CF90BF90AF909F908F904F
:106990007F906F905F904F903F902F9008958F92CF
:1069A0009F92AF92BF92CF92DF92EF92FF920F939E
